:100000000EC037C01CC01CC01AC019C018C017C011
:1000100016C015C014C013C012C011C010C01124E6
:100020001FBECFE5D2E0DEBFCDBF20E0A0E6B0E04E
:1000300001C01D92A336B207E1F768D079C0E0CFC6
:100040001F920F920FB60F9211248F939F93F894E3
:10005000809160009091610001969093610080937F
:10006000600078949F918F910F900FBE0F901F901A
:1000700018951F920F920FB60F9211248F939F9392
:10008000F894B29B08C0109261001092600081E069
:10009000809362000FC01092620080916000909186
:1000A0006100CD9720F088B3806188BB03C088B31E
:1000B0008F7E88BB78949F918F910F900FBE0F9089
:1000C0001F90189587B3816187BB08958BB78064B3
:1000D0008BBF85B7816085BF87B38B7F87BB87B3B5
:1000E000816087BB88B38E7F88BB8BB780628BBFF4
:1000F0007894089580B7806880BF80B7826080BFA1
:1001000084E68DBD89B7806489BF0895DBDFF2DFA7
:10011000DDDF8091600090916100813D9740C8F3E0
:10012000109261001092600088B3806188BBF1CFAB
:04013000F894FFCF71
:00000001FF
